{
  "_format": "hh-sol-artifact-1",
  "contractName": "HealthMonitoring",
  "sourceName": "contracts/HealthMonitoring.sol",
  "abi": [
    {
      "inputs": [],
      "stateMutability": "nonpayable",
      "type": "constructor"
    },
    {
      "anonymous": false,
      "inputs": [
        {
          "indexed": true,
          "internalType": "uint256",
          "name": "patientId",
          "type": "uint256"
        },
        {
          "indexed": false,
          "internalType": "string",
          "name": "notificationType",
          "type": "string"
        },
        {
          "indexed": false,
          "internalType": "string",
          "name": "emailId",
          "type": "string"
        }
      ],
      "name": "EmailNotificationSent",
      "type": "event"
    },
    {
      "anonymous": false,
      "inputs": [
        {
          "indexed": true,
          "internalType": "uint256",
          "name": "patientId",
          "type": "uint256"
        },
        {
          "indexed": true,
          "internalType": "uint256",
          "name": "alertId",
          "type": "uint256"
        },
        {
          "indexed": false,
          "internalType": "string",
          "name": "alertType",
          "type": "string"
        },
        {
          "indexed": false,
          "internalType": "bool",
          "name": "emailSent",
          "type": "bool"
        }
      ],
      "name": "HealthAlertTriggered",
      "type": "event"
    },
    {
      "anonymous": false,
      "inputs": [
        {
          "indexed": true,
          "internalType": "uint256",
          "name": "patientId",
          "type": "uint256"
        },
        {
          "indexed": true,
          "internalType": "uint256",
          "name": "analysisId",
          "type": "uint256"
        },
        {
          "indexed": false,
          "internalType": "string",
          "name": "riskLevel",
          "type": "string"
        },
        {
          "indexed": false,
          "internalType": "bool",
          "name": "emailSent",
          "type": "bool"
        }
      ],
      "name": "HealthAnalysisCompleted",
      "type": "event"
    },
    {
      "anonymous": false,
      "inputs": [
        {
          "indexed": true,
          "internalType": "uint256",
          "name": "patientId",
          "type": "uint256"
        },
        {
          "indexed": false,
          "internalType": "string",
          "name": "name",
          "type": "string"
        },
        {
          "indexed": false,
          "internalType": "string",
          "name": "email",
          "type": "string"
        }
      ],
      "name": "PatientRegistered",
      "type": "event"
    },
    {
      "anonymous": false,
      "inputs": [
        {
          "indexed": true,
          "internalType": "uint256",
          "name": "patientId",
          "type": "uint256"
        },
        {
          "indexed": false,
          "internalType": "string",
          "name": "email",
          "type": "string"
        }
      ],
      "name": "PatientUpdated",
      "type": "event"
    },
    {
      "anonymous": false,
      "inputs": [
        {
          "indexed": true,
          "internalType": "uint256",
          "name": "patientId",
          "type": "uint256"
        },
        {
          "indexed": true,
          "internalType": "uint256",
          "name": "vitalsId",
          "type": "uint256"
        },
        {
          "indexed": false,
          "internalType": "uint256",
          "name": "timestamp",
          "type": "uint256"
        }
      ],
      "name": "VitalsRecorded",
      "type": "event"
    },
    {
      "inputs": [
        {
          "internalType": "string",
          "name": "",
          "type": "string"
        }
      ],
      "name": "emailToPatientId",
      "outputs": [
        {
          "internalType": "uint256",
          "name": "",
          "type": "uint256"
        }
      ],
      "stateMutability": "view",
      "type": "function"
    },
    {
      "inputs": [],
      "name": "getContractInfo",
      "outputs": [
        {
          "internalType": "address",
          "name": "contractOwner",
          "type": "address"
        },
        {
          "internalType": "uint256",
          "name": "totalPatients",
          "type": "uint256"
        },
        {
          "internalType": "uint256",
          "name": "totalVitals",
          "type": "uint256"
        },
        {
          "internalType": "uint256",
          "name": "totalAnalyses",
          "type": "uint256"
        },
        {
          "internalType": "uint256",
          "name": "totalAlerts",
          "type": "uint256"
        }
      ],
      "stateMutability": "view",
      "type": "function"
    },
    {
      "inputs": [
        {
          "internalType": "uint256",
          "name": "_patientId",
          "type": "uint256"
        }
      ],
      "name": "getPatient",
      "outputs": [
        {
          "components": [
            {
              "internalType": "string",
              "name": "name",
              "type": "string"
            },
            {
              "internalType": "uint256",
              "name": "age",
              "type": "uint256"
            },
            {
              "internalType": "string",
              "name": "gender",
              "type": "string"
            },
            {
              "internalType": "string[]",
              "name": "medicalHistory",
              "type": "string[]"
            },
            {
              "internalType": "string",
              "name": "email",
              "type": "string"
            },
            {
              "internalType": "bool",
              "name": "isActive",
              "type": "bool"
            },
            {
              "internalType": "uint256",
              "name": "totalReadings",
              "type": "uint256"
            },
            {
              "internalType": "uint256",
              "name": "lastAnalysisTimestamp",
              "type": "uint256"
            }
          ],
          "internalType": "struct HealthMonitoring.Patient",
          "name": "",
          "type": "tuple"
        }
      ],
      "stateMutability": "view",
      "type": "function"
    },
    {
      "inputs": [
        {
          "internalType": "uint256",
          "name": "_patientId",
          "type": "uint256"
        }
      ],
      "name": "getPatientAlerts",
      "outputs": [
        {
          "components": [
            {
              "internalType": "uint256",
              "name": "timestamp",
              "type": "uint256"
            },
            {
              "internalType": "string",
              "name": "alertType",
              "type": "string"
            },
            {
              "internalType": "string",
              "name": "message",
              "type": "string"
            },
            {
              "internalType": "bool",
              "name": "resolved",
              "type": "bool"
            },
            {
              "internalType": "bool",
              "name": "emailSent",
              "type": "bool"
            },
            {
              "internalType": "string",
              "name": "emailId",
              "type": "string"
            }
          ],
          "internalType": "struct HealthMonitoring.HealthAlert[]",
          "name": "",
          "type": "tuple[]"
        }
      ],
      "stateMutability": "view",
      "type": "function"
    },
    {
      "inputs": [
        {
          "internalType": "uint256",
          "name": "_patientId",
          "type": "uint256"
        }
      ],
      "name": "getPatientAnalyses",
      "outputs": [
        {
          "components": [
            {
              "internalType": "uint256",
              "name": "timestamp",
              "type": "uint256"
            },
            {
              "internalType": "string",
              "name": "riskLevel",
              "type": "string"
            },
            {
              "internalType": "string[]",
              "name": "predictions",
              "type": "string[]"
            },
            {
              "internalType": "string[]",
              "name": "recommendations",
              "type": "string[]"
            },
            {
              "internalType": "string[]",
              "name": "insights",
              "type": "string[]"
            },
            {
              "internalType": "bool",
              "name": "emailSent",
              "type": "bool"
            },
            {
              "internalType": "string",
              "name": "emailId",
              "type": "string"
            },
            {
              "internalType": "uint256",
              "name": "dataPoints",
              "type": "uint256"
            }
          ],
          "internalType": "struct HealthMonitoring.HealthAnalysis[]",
          "name": "",
          "type": "tuple[]"
        }
      ],
      "stateMutability": "view",
      "type": "function"
    },
    {
      "inputs": [
        {
          "internalType": "string",
          "name": "_email",
          "type": "string"
        }
      ],
      "name": "getPatientIdByEmail",
      "outputs": [
        {
          "internalType": "uint256",
          "name": "",
          "type": "uint256"
        }
      ],
      "stateMutability": "view",
      "type": "function"
    },
    {
      "inputs": [
        {
          "internalType": "uint256",
          "name": "_patientId",
          "type": "uint256"
        }
      ],
      "name": "getPatientVitals",
      "outputs": [
        {
          "components": [
            {
              "internalType": "uint256",
              "name": "timestamp",
              "type": "uint256"
            },
            {
              "internalType": "uint256",
              "name": "heartRate",
              "type": "uint256"
            },
            {
              "internalType": "uint256",
              "name": "systolicBP",
              "type": "uint256"
            },
            {
              "internalType": "uint256",
              "name": "diastolicBP",
              "type": "uint256"
            },
            {
              "internalType": "uint256",
              "name": "oxygenSaturation",
              "type": "uint256"
            },
            {
              "internalType": "uint256",
              "name": "temperature",
              "type": "uint256"
            },
            {
              "internalType": "uint256",
              "name": "steps",
              "type": "uint256"
            },
            {
              "internalType": "uint256",
              "name": "calories",
              "type": "uint256"
            },
            {
              "internalType": "uint256",
              "name": "sleepHours",
              "type": "uint256"
            },
            {
              "internalType": "uint256",
              "name": "stressLevel",
              "type": "uint256"
            },
            {
              "internalType": "string",
              "name": "deviceType",
              "type": "string"
            }
          ],
          "internalType": "struct HealthMonitoring.VitalsData[]",
          "name": "",
          "type": "tuple[]"
        }
      ],
      "stateMutability": "view",
      "type": "function"
    },
    {
      "inputs": [],
      "name": "getTotalAlerts",
      "outputs": [
        {
          "internalType": "uint256",
          "name": "",
          "type": "uint256"
        }
      ],
      "stateMutability": "view",
      "type": "function"
    },
    {
      "inputs": [],
      "name": "getTotalAnalyses",
      "outputs": [
        {
          "internalType": "uint256",
          "name": "",
          "type": "uint256"
        }
      ],
      "stateMutability": "view",
      "type": "function"
    },
    {
      "inputs": [],
      "name": "getTotalPatients",
      "outputs": [
        {
          "internalType": "uint256",
          "name": "",
          "type": "uint256"
        }
      ],
      "stateMutability": "view",
      "type": "function"
    },
    {
      "inputs": [],
      "name": "getTotalVitals",
      "outputs": [
        {
          "internalType": "uint256",
          "name": "",
          "type": "uint256"
        }
      ],
      "stateMutability": "view",
      "type": "function"
    },
    {
      "inputs": [],
      "name": "owner",
      "outputs": [
        {
          "internalType": "address",
          "name": "",
          "type": "address"
        }
      ],
      "stateMutability": "view",
      "type": "function"
    },
    {
      "inputs": [
        {
          "internalType": "uint256",
          "name": "",
          "type": "uint256"
        },
        {
          "internalType": "uint256",
          "name": "",
          "type": "uint256"
        }
      ],
      "name": "patientAlerts",
      "outputs": [
        {
          "internalType": "uint256",
          "name": "timestamp",
          "type": "uint256"
        },
        {
          "internalType": "string",
          "name": "alertType",
          "type": "string"
        },
        {
          "internalType": "string",
          "name": "message",
          "type": "string"
        },
        {
          "internalType": "bool",
          "name": "resolved",
          "type": "bool"
        },
        {
          "internalType": "bool",
          "name": "emailSent",
          "type": "bool"
        },
        {
          "internalType": "string",
          "name": "emailId",
          "type": "string"
        }
      ],
      "stateMutability": "view",
      "type": "function"
    },
    {
      "inputs": [
        {
          "internalType": "uint256",
          "name": "",
          "type": "uint256"
        },
        {
          "internalType": "uint256",
          "name": "",
          "type": "uint256"
        }
      ],
      "name": "patientAnalyses",
      "outputs": [
        {
          "internalType": "uint256",
          "name": "timestamp",
          "type": "uint256"
        },
        {
          "internalType": "string",
          "name": "riskLevel",
          "type": "string"
        },
        {
          "internalType": "bool",
          "name": "emailSent",
          "type": "bool"
        },
        {
          "internalType": "string",
          "name": "emailId",
          "type": "string"
        },
        {
          "internalType": "uint256",
          "name": "dataPoints",
          "type": "uint256"
        }
      ],
      "stateMutability": "view",
      "type": "function"
    },
    {
      "inputs": [
        {
          "internalType": "uint256",
          "name": "",
          "type": "uint256"
        },
        {
          "internalType": "uint256",
          "name": "",
          "type": "uint256"
        }
      ],
      "name": "patientVitals",
      "outputs": [
        {
          "internalType": "uint256",
          "name": "timestamp",
          "type": "uint256"
        },
        {
          "internalType": "uint256",
          "name": "heartRate",
          "type": "uint256"
        },
        {
          "internalType": "uint256",
          "name": "systolicBP",
          "type": "uint256"
        },
        {
          "internalType": "uint256",
          "name": "diastolicBP",
          "type": "uint256"
        },
        {
          "internalType": "uint256",
          "name": "oxygenSaturation",
          "type": "uint256"
        },
        {
          "internalType": "uint256",
          "name": "temperature",
          "type": "uint256"
        },
        {
          "internalType": "uint256",
          "name": "steps",
          "type": "uint256"
        },
        {
          "internalType": "uint256",
          "name": "calories",
          "type": "uint256"
        },
        {
          "internalType": "uint256",
          "name": "sleepHours",
          "type": "uint256"
        },
        {
          "internalType": "uint256",
          "name": "stressLevel",
          "type": "uint256"
        },
        {
          "internalType": "string",
          "name": "deviceType",
          "type": "string"
        }
      ],
      "stateMutability": "view",
      "type": "function"
    },
    {
      "inputs": [
        {
          "internalType": "uint256",
          "name": "",
          "type": "uint256"
        }
      ],
      "name": "patients",
      "outputs": [
        {
          "internalType": "string",
          "name": "name",
          "type": "string"
        },
        {
          "internalType": "uint256",
          "name": "age",
          "type": "uint256"
        },
        {
          "internalType": "string",
          "name": "gender",
          "type": "string"
        },
        {
          "internalType": "string",
          "name": "email",
          "type": "string"
        },
        {
          "internalType": "bool",
          "name": "isActive",
          "type": "bool"
        },
        {
          "internalType": "uint256",
          "name": "totalReadings",
          "type": "uint256"
        },
        {
          "internalType": "uint256",
          "name": "lastAnalysisTimestamp",
          "type": "uint256"
        }
      ],
      "stateMutability": "view",
      "type": "function"
    },
    {
      "inputs": [
        {
          "internalType": "uint256",
          "name": "_patientId",
          "type": "uint256"
        },
        {
          "internalType": "string",
          "name": "_alertType",
          "type": "string"
        },
        {
          "internalType": "string",
          "name": "_message",
          "type": "string"
        },
        {
          "internalType": "bool",
          "name": "_emailSent",
          "type": "bool"
        },
        {
          "internalType": "string",
          "name": "_emailId",
          "type": "string"
        }
      ],
      "name": "recordHealthAlert",
      "outputs": [],
      "stateMutability": "nonpayable",
      "type": "function"
    },
    {
      "inputs": [
        {
          "internalType": "uint256",
          "name": "_patientId",
          "type": "uint256"
        },
        {
          "internalType": "string",
          "name": "_riskLevel",
          "type": "string"
        },
        {
          "internalType": "string[]",
          "name": "_predictions",
          "type": "string[]"
        },
        {
          "internalType": "string[]",
          "name": "_recommendations",
          "type": "string[]"
        },
        {
          "internalType": "string[]",
          "name": "_insights",
          "type": "string[]"
        },
        {
          "internalType": "bool",
          "name": "_emailSent",
          "type": "bool"
        },
        {
          "internalType": "string",
          "name": "_emailId",
          "type": "string"
        },
        {
          "internalType": "uint256",
          "name": "_dataPoints",
          "type": "uint256"
        }
      ],
      "name": "recordHealthAnalysis",
      "outputs": [],
      "stateMutability": "nonpayable",
      "type": "function"
    },
    {
      "inputs": [
        {
          "internalType": "uint256",
          "name": "_patientId",
          "type": "uint256"
        },
        {
          "components": [
            {
              "internalType": "uint256",
              "name": "timestamp",
              "type": "uint256"
            },
            {
              "internalType": "uint256",
              "name": "heartRate",
              "type": "uint256"
            },
            {
              "internalType": "uint256",
              "name": "systolicBP",
              "type": "uint256"
            },
            {
              "internalType": "uint256",
              "name": "diastolicBP",
              "type": "uint256"
            },
            {
              "internalType": "uint256",
              "name": "oxygenSaturation",
              "type": "uint256"
            },
            {
              "internalType": "uint256",
              "name": "temperature",
              "type": "uint256"
            },
            {
              "internalType": "uint256",
              "name": "steps",
              "type": "uint256"
            },
            {
              "internalType": "uint256",
              "name": "calories",
              "type": "uint256"
            },
            {
              "internalType": "uint256",
              "name": "sleepHours",
              "type": "uint256"
            },
            {
              "internalType": "uint256",
              "name": "stressLevel",
              "type": "uint256"
            },
            {
              "internalType": "string",
              "name": "deviceType",
              "type": "string"
            }
          ],
          "internalType": "struct HealthMonitoring.VitalsData",
          "name": "_vitals",
          "type": "tuple"
        }
      ],
      "name": "recordVitals",
      "outputs": [],
      "stateMutability": "nonpayable",
      "type": "function"
    },
    {
      "inputs": [
        {
          "internalType": "string",
          "name": "_name",
          "type": "string"
        },
        {
          "internalType": "uint256",
          "name": "_age",
          "type": "uint256"
        },
        {
          "internalType": "string",
          "name": "_gender",
          "type": "string"
        },
        {
          "internalType": "string[]",
          "name": "_medicalHistory",
          "type": "string[]"
        },
        {
          "internalType": "string",
          "name": "_email",
          "type": "string"
        }
      ],
      "name": "registerPatient",
      "outputs": [
        {
          "internalType": "uint256",
          "name": "",
          "type": "uint256"
        }
      ],
      "stateMutability": "nonpayable",
      "type": "function"
    },
    {
      "inputs": [
        {
          "internalType": "uint256",
          "name": "_patientId",
          "type": "uint256"
        },
        {
          "internalType": "uint256",
          "name": "_alertIndex",
          "type": "uint256"
        }
      ],
      "name": "resolveAlert",
      "outputs": [],
      "stateMutability": "nonpayable",
      "type": "function"
    },
    {
      "inputs": [
        {
          "internalType": "uint256",
          "name": "_patientId",
          "type": "uint256"
        },
        {
          "internalType": "string",
          "name": "_newEmail",
          "type": "string"
        }
      ],
      "name": "updatePatientEmail",
      "outputs": [],
      "stateMutability": "nonpayable",
      "type": "function"
    }
  ],
  "bytecode": "0x6080604052600060015560006002556000600355600060045534801561002457600080fd5b50600080546001600160a01b03191633179055600180805560028190556003819055600455613d5a806100586000396000f3fe608060405234801561001057600080fd5b50600436106101425760003560e01c806393119a83116100b8578063c1be76d71161007c578063c1be76d714610319578063cae9333814610321578063ec3c1aeb14610345578063f497e1891461036f578063f7c984f814610377578063fd994f491461039757600080fd5b806393119a83146102a75780639cdd77b5146102cd578063a06ddd64146102e0578063a6c7f79e146102f3578063be56e9fd1461030657600080fd5b806352a5978a1161010a57806352a5978a146101b257806355f09944146101d75780635f344b7e146102025780637cc1f867146102225780637d3a67961461025c5780638da5cb5b1461027c57600080fd5b8063037345761461014757806313c5b3f01461015c57806336dc6fde146101775780633bdb3c8e146101975780634ef3605b146101aa575b600080fd5b61015a610155366004612e56565b6103aa565b005b610164610740565b6040519081526020015b60405180910390f35b61018a610185366004612f3a565b610756565b60405161016e9190612fa3565b61015a6101a5366004613078565b6108e2565b610164610a87565b6101c56101c0366004613078565b610a98565b60405161016e9695949392919061309a565b6101646101e53660046130f6565b805160208183018101805160098252928201919093012091525481565b610215610210366004612f3a565b610c92565b60405161016e9190613188565b61022a6110f3565b604080516001600160a01b0390961686526020860194909452928401919091526060830152608082015260a00161016e565b61026f61026a366004612f3a565b611154565b60405161016e919061327d565b60005461028f906001600160a01b031681565b6040516001600160a01b03909116815260200161016e565b6102ba6102b5366004612f3a565b6114a7565b60405161016e9796959493929190613334565b6101646102db366004613432565b61167f565b61015a6102ee3660046134fe565b611949565b61015a610301366004613571565b611bd7565b61015a610314366004613667565b611f0f565b610164612188565b61033461032f366004613078565b612199565b60405161016e9594939291906136ae565b610358610353366004613078565b612305565b60405161016e9b9a999897969594939291906136f4565b610164612404565b61038a610385366004612f3a565b612414565b60405161016e9190613759565b6101646103a53660046130f6565b612681565b6000546001600160a01b031633146103dd5760405162461bcd60e51b81526004016103d490613810565b60405180910390fd5b816000811180156103ef575060015481105b61040b5760405162461bcd60e51b81526004016103d490613851565b6000818152600560208190526040909120015460ff1661043d5760405162461bcd60e51b81526004016103d49061387d565b8160008160200151118015610458575061012c816020015111155b6104995760405162461bcd60e51b8152602060048201526012602482015271496e76616c6964206865617274207261746560701b60448201526064016103d4565b600081604001511180156104b3575061012c816040015111155b6104f55760405162461bcd60e51b81526020600482015260136024820152720496e76616c696420737973746f6c696320425606c1b60448201526064016103d4565b6000816060015111801561050e575060c8816060015111155b6105515760405162461bcd60e51b81526020600482015260146024820152730496e76616c69642064696173746f6c69632042560641b60448201526064016103d4565b604681608001511015801561056b57506064816080015111155b6105b75760405162461bcd60e51b815260206004820152601960248201527f496e76616c6964206f787967656e2073617475726174696f6e0000000000000060448201526064016103d4565b601e8160a00151101580156105d15750602d8160a0015111155b6106135760405162461bcd60e51b8152602060048201526013602482015272496e76616c69642074656d706572617475726560681b60448201526064016103d4565b4283526000848152600660208181526040808420805460018181018355918652948390208851600b9096020194855591870151918401919091558501516002830155606085015160038301556080850151600483015560a0850151600583015560c08501519082015560e0840151600782015561010084015160088201556101208401516009820155610140840151849190600a8201906106b49082613931565b50505060008481526005602052604081206006018054916106d483613a07565b90915550506002805490819060006106eb83613a07565b919050555080857f56cb2b6705678aa9f9c4cabaf282a2c4faf0d727a0d1d873825117c173bfdd7d866000015160405161072791815260200190565b60405180910390a361073985856126a9565b5050505050565b600060016002546107519190613a20565b905090565b6060600082118015610769575060015482105b6107855760405162461bcd60e51b81526004016103d490613851565b600082815260066020908152604080832080548251818502810185019093528083529193909284015b828210156108d757838290600052602060002090600b02016040518061016001604052908160008201548152602001600182015481526020016002820154815260200160038201548152602001600482015481526020016005820154815260200160068201548152602001600782015481526020016008820154815260200160098201548152602001600a82018054610846906138a9565b80601f0160208091040260200160405190810160405280929190818152602001828054610872906138a9565b80156108bf5780601f10610894576101008083540402835291602001916108bf565b820191906000526020600020905b8154815290600101906020018083116108a257829003601f168201915b505050505081525050815260200190600101906107ae565b505050509050919050565b6000546001600160a01b0316331461090c5760405162461bcd60e51b81526004016103d490613810565b8160008111801561091e575060015481105b61093a5760405162461bcd60e51b81526004016103d490613851565b6000818152600560208190526040909120015460ff1661096c5760405162461bcd60e51b81526004016103d49061387d565b60008381526008602052604090205482106109bf5760405162461bcd60e51b8152602060048201526013602482015272092dcecc2d8d2c840c2d8cae4e840d2dcc8caf606b1b60448201526064016103d4565b60008381526008602052604090208054839081106109df576109df613a39565b600091825260209091206003600590920201015460ff1615610a3c5760405162461bcd60e51b8152602060048201526016602482015275105b195c9d08185b1c9958591e481c995cdbdb1d995960521b60448201526064016103d4565b600083815260086020526040902080546001919084908110610a6057610a60613a39565b60009182526020909120600590910201600301805460ff1916911515919091179055505050565b600060016003546107519190613a20565b60086020528160005260406000208181548110610ab457600080fd5b906000526020600020906005020160009150915050806000015490806001018054610ade906138a9565b80601f0160208091040260200160405190810160405280929190818152602001828054610b0a906138a9565b8015610b575780601f10610b2c57610100808354040283529160200191610b57565b820191906000526020600020905b815481529060010190602001808311610b3a57829003601f168201915b505050505090806002018054610b6c906138a9565b80601f0160208091040260200160405190810160405280929190818152602001828054610b98906138a9565b8015610be55780601f10610bba57610100808354040283529160200191610be5565b820191906000526020600020905b815481529060010190602001808311610bc857829003601f168201915b505050506003830154600484018054939460ff8084169561010090940416935091610c0f906138a9565b80601f0160208091040260200160405190810160405280929190818152602001828054610c3b906138a9565b8015610c885780601f10610c5d57610100808354040283529160200191610c88565b820191906000526020600020905b815481529060010190602001808311610c6b57829003601f168201915b5050505050905086565b6060600082118015610ca5575060015482105b610cc15760405162461bcd60e51b81526004016103d490613851565b600082815260076020908152604080832080548251818502810185019093528083529193909284015b828210156108d757838290600052602060002090600802016040518061010001604052908160008201548152602001600182018054610d28906138a9565b80601f0160208091040260200160405190810160405280929190818152602001828054610d54906138a9565b8015610da15780601f10610d7657610100808354040283529160200191610da1565b820191906000526020600020905b815481529060010190602001808311610d8457829003601f168201915b5050505050815260200160028201805480602002602001604051908101604052809291908181526020016000905b82821015610e7b578382906000526020600020018054610dee906138a9565b80601f0160208091040260200160405190810160405280929190818152602001828054610e1a906138a9565b8015610e675780601f10610e3c57610100808354040283529160200191610e67565b820191906000526020600020905b815481529060010190602001808311610e4a57829003601f168201915b505050505081526020019060010190610dcf565b50505050815260200160038201805480602002602001604051908101604052809291908181526020016000905b82821015610f54578382906000526020600020018054610ec7906138a9565b80601f0160208091040260200160405190810160405280929190818152602001828054610ef3906138a9565b8015610f405780601f10610f1557610100808354040283529160200191610f40565b820191906000526020600020905b815481529060010190602001808311610f2357829003601f168201915b505050505081526020019060010190610ea8565b50505050815260200160048201805480602002602001604051908101604052809291908181526020016000905b8282101561102d578382906000526020600020018054610fa0906138a9565b80601f0160208091040260200160405190810160405280929190818152602001828054610fcc906138a9565b80156110195780601f10610fee57610100808354040283529160200191611019565b820191906000526020600020905b815481529060010190602001808311610ffc57829003601f168201915b505050505081526020019060010190610f81565b50505090825250600582015460ff1615156020820152600682018054604090920191611058906138a9565b80601f0160208091040260200160405190810160405280929190818152602001828054611084906138a9565b80156110d15780601f106110a6576101008083540402835291602001916110d1565b820191906000526020600020905b8154815290600101906020018083116110b457829003601f168201915b5050505050815260200160078201548152505081526020019060010190610cea565b600080546001805483928392839283926001600160a01b03169161111691613a20565b60016002546111259190613a20565b60016003546111349190613a20565b60016004546111439190613a20565b945094509450945094509091929394565b61119e604051806101000160405280606081526020016000815260200160608152602001606081526020016060815260200160001515815260200160008152602001600081525090565b6000821180156111af575060015482105b6111cb5760405162461bcd60e51b81526004016103d490613851565b60008281526005602052604090819020815161010081019092528054829082906111f4906138a9565b80601f0160208091040260200160405190810160405280929190818152602001828054611220906138a9565b801561126d5780601f106112425761010080835404028352916020019161126d565b820191906000526020600020905b81548152906001019060200180831161125057829003601f168201915b5050505050815260200160018201548152602001600282018054611290906138a9565b80601f01602080910402602001604051908101604052809291908181526020018280546112bc906138a9565b80156113095780601f106112de57610100808354040283529160200191611309565b820191906000526020600020905b8154815290600101906020018083116112ec57829003601f168201915b5050505050815260200160038201805480602002602001604051908101604052809291908181526020016000905b828210156113e3578382906000526020600020018054611356906138a9565b80601f0160208091040260200160405190810160405280929190818152602001828054611382906138a9565b80156113cf5780601f106113a4576101008083540402835291602001916113cf565b820191906000526020600020905b8154815290600101906020018083116113b257829003601f168201915b505050505081526020019060010190611337565b5050505081526020016004820180546113fb906138a9565b80601f0160208091040260200160405190810160405280929190818152602001828054611427906138a9565b80156114745780601f1061144957610100808354040283529160200191611474565b820191906000526020600020905b81548152906001019060200180831161145757829003601f168201915b5050509183525050600582015460ff16151560208201526006820154604082015260079091015460609091015292915050565b6005602052600090815260409020805481906114c2906138a9565b80601f01602080910402602001604051908101604052809291908181526020018280546114ee906138a9565b801561153b5780601f106115105761010080835404028352916020019161153b565b820191906000526020600020905b81548152906001019060200180831161151e57829003601f168201915b505050505090806001015490806002018054611556906138a9565b80601f0160208091040260200160405190810160405280929190818152602001828054611582906138a9565b80156115cf5780601f106115a4576101008083540402835291602001916115cf565b820191906000526020600020905b8154815290600101906020018083116115b257829003601f168201915b5050505050908060040180546115e4906138a9565b80601f0160208091040260200160405190810160405280929190818152602001828054611610906138a9565b801561165d5780601f106116325761010080835404028352916020019161165d565b820191906000526020600020905b81548152906001019060200180831161164057829003601f168201915b5050505060058301546006840154600790940154929360ff9091169290915087565b600080546001600160a01b031633146116aa5760405162461bcd60e51b81526004016103d490613810565b60008651116116f25760405162461bcd60e51b81526020600482015260146024820152734e616d652063616e6e6f7420626520656d70747960601b60448201526064016103d4565b600085118015611703575060968511155b61173d5760405162461bcd60e51b815260206004820152600b60248201526a496e76616c69642061676560a81b60448201526064016103d4565b60008251116117865760405162461bcd60e51b8152602060048201526015602482015274456d61696c2063616e6e6f7420626520656d70747960581b60448201526064016103d4565b6009826040516117969190613a4f565b9081526020016040518091039020546000146117ef5760405162461bcd60e51b8152602060048201526018602482015277115b585a5b08185b1c9958591e481c9959da5cdd195c995960421b60448201526064016103d4565b60018054908190600061180183613a07565b9091555050604080516101008101825288815260208082018990528183018890526060820187905260808201869052600160a0830152600060c0830181905260e08301819052848152600590915291909120815181906118619082613931565b5060208201516001820155604082015160028201906118809082613931565b506060820151805161189c916003840191602090910190612cb0565b50608082015160048201906118b19082613931565b5060a082015160058201805460ff191691151591909117905560c0820151600682015560e09091015160079091015560405181906009906118f3908690613a4f565b908152602001604051809103902081905550807f5f673cc9bae30af09647bf6b05c75bfe500249fc12ad0a9d7a8dba814d76652e8885604051611937929190613a6b565b60405180910390a29695505050505050565b6000546001600160a01b031633146119735760405162461bcd60e51b81526004016103d490613810565b84600081118015611985575060015481105b6119a15760405162461bcd60e51b81526004016103d490613851565b6000818152600560208190526040909120015460ff166119d35760405162461bcd60e51b81526004016103d49061387d565b6000855111611a245760405162461bcd60e51b815260206004820152601a60248201527f416c65727420747970652063616e6e6f7420626520656d70747900000000000060448201526064016103d4565b6000845111611a755760405162461bcd60e51b815260206004820152601d60248201527f416c657274206d6573736167652063616e6e6f7420626520656d70747900000060448201526064016103d4565b6040805160c0810182524281526020808201888152828401889052600060608401819052871515608085015260a084018790528a815260088352938420805460018181018355918652929094208351600590930201918255519192839290820190611ae09082613931565b5060408201516002820190611af59082613931565b506060820151600382018054608085015115156101000261ff00199315159390931661ffff199091161791909117905560a08201516004820190611b399082613931565b505060048054915081906000611b4e83613a07565b919050555080887f06cac2ecc273300535546cbeb76f264169225d304bd7749315202ec2287200cb8988604051611b86929190613a99565b60405180910390a38415611bcd57877ffc7e61a4f4772aaa6c9067640cbf3408a27e8520367881e94ac072f65a47e77385604051611bc49190613abd565b60405180910390a25b5050505050505050565b6000546001600160a01b03163314611c015760405162461bcd60e51b81526004016103d490613810565b87600081118015611c13575060015481105b611c2f5760405162461bcd60e51b81526004016103d490613851565b6000818152600560208190526040909120015460ff16611c615760405162461bcd60e51b81526004016103d49061387d565b6000885111611cb25760405162461bcd60e51b815260206004820152601a60248201527f5269736b206c6576656c2063616e6e6f7420626520656d70747900000000000060448201526064016103d4565b6000875111611d035760405162461bcd60e51b815260206004820152601b60248201527f50726564696374696f6e732063616e6e6f7420626520656d707479000000000060448201526064016103d4565b6000865111611d545760405162461bcd60e51b815260206004820152601f60248201527f5265636f6d6d656e646174696f6e732063616e6e6f7420626520656d7074790060448201526064016103d4565b604080516101008101825242815260208082018b81528284018b9052606083018a90526080830189905287151560a084015260c0830187905260e0830186905260008d815260078352938420805460018181018355918652929094208351600890930201918255519192839290820190611dce9082613931565b5060408201518051611dea916002840191602090910190612cb0565b5060608201518051611e06916003840191602090910190612cb0565b5060808201518051611e22916004840191602090910190612cb0565b5060a082015160058201805460ff191691151591909117905560c08201516006820190611e4f9082613931565b5060e0919091015160079182015560008b8152600560205260408120429201919091556003805491829190611e8383613a07565b9190505550808b7f149d78f0adce281fd7835634b32e27ec41064fc8a9abbb78d2fc0f1e774afbd28c89604051611ebb929190613a99565b60405180910390a38515611f02578a7ffc7e61a4f4772aaa6c9067640cbf3408a27e8520367881e94ac072f65a47e77386604051611ef99190613af3565b60405180910390a25b5050505050505050505050565b6000546001600160a01b03163314611f395760405162461bcd60e51b81526004016103d490613810565b81600081118015611f4b575060015481105b611f675760405162461bcd60e51b81526004016103d490613851565b6000818152600560208190526040909120015460ff16611f995760405162461bcd60e51b81526004016103d49061387d565b6000825111611fe25760405162461bcd60e51b8152602060048201526015602482015274456d61696c2063616e6e6f7420626520656d70747960581b60448201526064016103d4565b600982604051611ff29190613a4f565b90815260200160405180910390205460001461204b5760405162461bcd60e51b8152602060048201526018602482015277115b585a5b08185b1c9958591e481c9959da5cdd195c995960421b60448201526064016103d4565b60008381526005602052604081206004018054612067906138a9565b80601f0160208091040260200160405190810160405280929190818152602001828054612093906138a9565b80156120e05780601f106120b5576101008083540402835291602001916120e0565b820191906000526020600020905b8154815290600101906020018083116120c357829003601f168201915b5050505050905060006009826040516120f99190613a4f565b9081526020016040518091039020819055508360098460405161211c9190613a4f565b90815260408051602092819003830190209290925560008681526005909152206004016121498482613931565b50837f1058419864553a7736d05f5f0a79e4d2163a98eb45f4bcce071212f00d839fb08460405161217a9190613b25565b60405180910390a250505050565b600060016004546107519190613a20565b600760205281600052604060002081815481106121b557600080fd5b9060005260206000209060080201600091509150508060000154908060010180546121df906138a9565b80601f016020809104026020016040519081016040528092919081815260200182805461220b906138a9565b80156122585780601f1061222d57610100808354040283529160200191612258565b820191906000526020600020905b81548152906001019060200180831161223b57829003601f168201915b5050506005840154600685018054949560ff90921694919350915061227c906138a9565b80601f01602080910402602001604051908101604052809291908181526020018280546122a8906138a9565b80156122f55780601f106122ca576101008083540402835291602001916122f5565b820191906000526020600020905b8154815290600101906020018083116122d857829003601f168201915b5050505050908060070154905085565b6006602052816000526040600020818154811061232157600080fd5b90600052602060002090600b02016000915091505080600001549080600101549080600201549080600301549080600401549080600501549080600601549080600701549080600801549080600901549080600a018054612381906138a9565b80601f01602080910402602001604051908101604052809291908181526020018280546123ad906138a9565b80156123fa5780601f106123cf576101008083540402835291602001916123fa565b820191906000526020600020905b8154815290600101906020018083116123dd57829003601f168201915b505050505090508b565b6000600180546107519190613a20565b6060600082118015612427575060015482105b6124435760405162461bcd60e51b81526004016103d490613851565b600082815260086020908152604080832080548251818502810185019093528083529193909284015b828210156108d757838290600052602060002090600502016040518060c0016040529081600082015481526020016001820180546124a9906138a9565b80601f01602080910402602001604051908101604052809291908181526020018280546124d5906138a9565b80156125225780601f106124f757610100808354040283529160200191612522565b820191906000526020600020905b81548152906001019060200180831161250557829003601f168201915b5050505050815260200160028201805461253b906138a9565b80601f0160208091040260200160405190810160405280929190818152602001828054612567906138a9565b80156125b45780601f10612589576101008083540402835291602001916125b4565b820191906000526020600020905b81548152906001019060200180831161259757829003601f168201915b5050509183525050600382015460ff8082161515602084015261010090910416151560408201526004820180546060909201916125f0906138a9565b80601f016020809104026020016040519081016040528092919081815260200182805461261c906138a9565b80156126695780601f1061263e57610100808354040283529160200191612669565b820191906000526020600020905b81548152906001019060200180831161264c57829003601f168201915b5050505050815250508152602001906001019061246c565b60006009826040516126939190613a4f565b9081526020016040518091039020549050919050565b60648160200151111561278a5760006126c58260200151612a23565b6040516020016126d59190613b38565b604051602081830303815290604052905060788260200151111561274c57612747836040518060400160405280600881526020016718dc9a5d1a58d85b60c21b8152508360016040518060400160405280600e81526020016d185d5d1bcb59d95b995c985d195960921b815250612b4f565b612788565b61278883604051806040016040528060078152602001667761726e696e6760c81b81525083600060405180602001604052806000815250612b4f565b505b608c816040015111806127a15750605a8160600151115b1561283a5760006127b58260400151612a23565b6127c28360600151612a23565b6040516020016127d3929190613b8b565b6040516020818303038152906040529050612838836040518060400160405280600881526020016718dc9a5d1a58d85b60c21b8152508360016040518060400160405280600e81526020016d185d5d1bcb59d95b995c985d195960921b815250612b4f565b505b605f8160800151101561291b5760006128568260800151612a23565b6040516020016128669190613bfa565b6040516020818303038152906040529050605c826080015110156128dd576128d8836040518060400160405280600881526020016718dc9a5d1a58d85b60c21b8152508360016040518060400160405280600e81526020016d185d5d1bcb59d95b995c985d195960921b815250612b4f565b612919565b61291983604051806040016040528060078152602001667761726e696e6760c81b81525083600060405180602001604052806000815250612b4f565b505b6101778160a001511115612a1f576000612944600a8360a0015161293f9190613c60565b612a23565b612958600a8460a0015161293f9190613c74565b604051602001612969929190613c88565b604051602081830303815290604052905061017c8260a0015111156129e1576129dc836040518060400160405280600881526020016718dc9a5d1a58d85b60c21b8152508360016040518060400160405280600e81526020016d185d5d1bcb59d95b995c985d195960921b815250612b4f565b612a1d565b612a1d83604051806040016040528060078152602001667761726e696e6760c81b81525083600060405180602001604052806000815250612b4f565b505b5050565b606081600003612a4a5750506040805180820190915260018152600360fc1b602082015290565b8160005b8115612a745780612a5e81613a07565b9150612a6d9050600a83613c60565b9150612a4e565b60008167ffffffffffffffff811115612a8f57612a8f612d75565b6040519080825280601f01601f191660200182016040528015612ab9576020820181803683370190505b509050815b8515612b4657612acf600182613a20565b90506000612ade600a88613c60565b612ae990600a613cf4565b612af39088613a20565b612afe906030613d0b565b905060008160f81b905080848481518110612b1b57612b1b613a39565b60200101906001600160f81b031916908160001a905350612b3d600a89613c60565b97505050612abe565b50949350505050565b6040805160c0810182524281526020808201878152828401879052600060608401819052861515608085015260a0840186905289815260088352938420805460018181018355918652929094208351600590930201918255519192839290820190612bba9082613931565b5060408201516002820190612bcf9082613931565b506060820151600382018054608085015115156101000261ff00199315159390931661ffff199091161791909117905560a08201516004820190612c139082613931565b505060048054915081906000612c2883613a07565b919050555080877f06cac2ecc273300535546cbeb76f264169225d304bd7749315202ec2287200cb8887604051612c60929190613a99565b60405180910390a38315612ca757867ffc7e61a4f4772aaa6c9067640cbf3408a27e8520367881e94ac072f65a47e77384604051612c9e9190613abd565b60405180910390a25b50505050505050565b828054828255906000526020600020908101928215612cf6579160200282015b82811115612cf65782518290612ce69082613931565b5091602001919060010190612cd0565b50612d02929150612d06565b5090565b80821115612d02576000612d1a8282612d23565b50600101612d06565b508054612d2f906138a9565b6000825580601f10612d3f575050565b601f016020900490600052602060002090810190612d5d9190612d60565b50565b5b80821115612d025760008155600101612d61565b634e487b7160e01b600052604160045260246000fd5b604051610160810167ffffffffffffffff81118282101715612daf57612daf612d75565b60405290565b604051601f8201601f1916810167ffffffffffffffff81118282101715612dde57612dde612d75565b604052919050565b600082601f830112612df757600080fd5b813567ffffffffffffffff811115612e1157612e11612d75565b612e24601f8201601f1916602001612db5565b818152846020838601011115612e3957600080fd5b816020850160208301376000918101602001919091529392505050565b60008060408385031215612e6957600080fd5b82359150602083013567ffffffffffffffff80821115612e8857600080fd5b908401906101608287031215612e9d57600080fd5b612ea5612d8b565b823581526020830135602082015260408301356040820152606083013560608201526080830135608082015260a083013560a082015260c083013560c082015260e083013560e08201526101008084013581830152506101208084013581830152506101408084013583811115612f1b57600080fd5b612f2789828701612de6565b8284015250508093505050509250929050565b600060208284031215612f4c57600080fd5b5035919050565b60005b83811015612f6e578181015183820152602001612f56565b50506000910152565b60008151808452612f8f816020860160208601612f53565b601f01601f19169290920160200192915050565b60006020808301818452808551808352604092508286019150828160051b87010184880160005b8381101561306a57888303603f1901855281518051845287810151888501528681015187850152606080820151908501526080808201519085015260a0808201519085015260c0808201519085015260e0808201519085015261010080820151908501526101208082015190850152610140908101516101609185018290529061305681860183612f77565b968901969450505090860190600101612fca565b509098975050505050505050565b6000806040838503121561308b57600080fd5b50508035926020909101359150565b86815260c0602082015260006130b360c0830188612f77565b82810360408401526130c58188612f77565b90508515156060840152841515608084015282810360a08401526130e98185612f77565b9998505050505050505050565b60006020828403121561310857600080fd5b813567ffffffffffffffff81111561311f57600080fd5b61312b84828501612de6565b949350505050565b600081518084526020808501808196508360051b8101915082860160005b8581101561317b578284038952613169848351612f77565b98850198935090840190600101613151565b5091979650505050505050565b60006020808301818452808551808352604092508286019150828160051b87010184880160005b8381101561306a57603f1989840301855281516101008151855288820151818a8701526131de82870182612f77565b91505087820151858203898701526131f68282613133565b915050606080830151868303828801526132108382613133565b925050506080808301518683038288015261322b8382613133565b9250505060a0808301516132428288018215159052565b505060c0808301518683038288015261325b8382612f77565b60e09485015197909401969096525050948701949250908601906001016131af565b602081526000825161010080602085015261329c610120850183612f77565b9150602085015160408501526040850151601f19808685030160608701526132c48483612f77565b935060608701519150808685030160808701526132e18483613133565b935060808701519150808685030160a0870152506132ff8382612f77565b92505060a085015161331560c086018215159052565b5060c085015160e085015260e085015181850152508091505092915050565b60e08152600061334760e083018a612f77565b886020840152828103604084015261335f8189612f77565b905082810360608401526133738188612f77565b9515156080840152505060a081019290925260c090910152949350505050565b600082601f8301126133a457600080fd5b8135602067ffffffffffffffff808311156133c1576133c1612d75565b8260051b6133d0838201612db5565b93845285810183019383810190888611156133ea57600080fd5b84880192505b85831015613426578235848111156134085760008081fd5b6134168a87838c0101612de6565b83525091840191908401906133f0565b98975050505050505050565b600080600080600060a0868803121561344a57600080fd5b853567ffffffffffffffff8082111561346257600080fd5b61346e89838a01612de6565b965060208801359550604088013591508082111561348b57600080fd5b61349789838a01612de6565b945060608801359150808211156134ad57600080fd5b6134b989838a01613393565b935060808801359150808211156134cf57600080fd5b506134dc88828901612de6565b9150509295509295909350565b803580151581146134f957600080fd5b919050565b600080600080600060a0868803121561351657600080fd5b85359450602086013567ffffffffffffffff8082111561353557600080fd5b61354189838a01612de6565b9550604088013591508082111561355757600080fd5b61356389838a01612de6565b94506134b9606089016134e9565b600080600080600080600080610100898b03121561358e57600080fd5b88359750602089013567ffffffffffffffff808211156135ad57600080fd5b6135b98c838d01612de6565b985060408b01359150808211156135cf57600080fd5b6135db8c838d01613393565b975060608b01359150808211156135f157600080fd5b6135fd8c838d01613393565b965060808b013591508082111561361357600080fd5b61361f8c838d01613393565b955061362d60a08c016134e9565b945060c08b013591508082111561364357600080fd5b506136508b828c01612de6565b92505060e089013590509295985092959890939650565b6000806040838503121561367a57600080fd5b82359150602083013567ffffffffffffffff81111561369857600080fd5b6136a485828601612de6565b9150509250929050565b85815260a0602082015260006136c760a0830187612f77565b851515604084015282810360608401526136e18186612f77565b9150508260808301529695505050505050565b60006101608d83528c60208401528b60408401528a60608401528960808401528860a08401528760c08401528660e084015285610100840152846101208401528061014084015261374781840185612f77565b9e9d5050505050505050505050505050565b60006020808301818452808551808352604092508286019150828160051b87010184880160005b8381101561306a57603f19898403018552815160c08151855288820151818a8701526137ae82870182612f77565b91505087820151858203898701526137c68282612f77565b60608481015115159088015260808085015115159088015260a0938401518782039488019490945291506137fc90508183612f77565b968901969450505090860190600101613780565b60208082526021908201527f4f6e6c79206f776e65722063616e2063616c6c20746869732066756e6374696f6040820152603760f91b606082015260800190565b602080825260129082015271125b9d985b1a59081c185d1a595b9d08125160721b604082015260600190565b60208082526012908201527150617469656e74206e6f742061637469766560701b604082015260600190565b600181811c908216806138bd57607f821691505b6020821081036138dd57634e487b7160e01b600052602260045260246000fd5b50919050565b601f821115612a1d57600081815260208120601f850160051c8101602086101561390a5750805b601f850160051c820191505b8181101561392957828155600101613916565b505050505050565b815167ffffffffffffffff81111561394b5761394b612d75565b61395f8161395984546138a9565b846138e3565b602080601f831160018114613994576000841561397c5750858301515b600019600386901b1c1916600185901b178555613929565b600085815260208120601f198616915b828110156139c3578886015182559484019460019091019084016139a4565b50858210156139e15787850151600019600388901b60f8161c191681555b5050505050600190811b01905550565b634e487b7160e01b600052601160045260246000fd5b600060018201613a1957613a196139f1565b5060010190565b81810381811115613a3357613a336139f1565b92915050565b634e487b7160e01b600052603260045260246000fd5b60008251613a61818460208701612f53565b9190910192915050565b604081526000613a7e6040830185612f77565b8281036020840152613a908185612f77565b95945050505050565b604081526000613aac6040830185612f77565b905082151560208301529392505050565b604081526005604082015264185b195c9d60da1b6060820152608060208201526000613aec6080830184612f77565b9392505050565b604081526008604082015267616e616c7973697360c01b6060820152608060208201526000613aec6080830184612f77565b602081526000613aec6020830184612f77565b7f456c65766174656420686561727420726174652064657465637465643a200000815260008251613b7081601e850160208701612f53565b632042504d60e01b601e939091019283015250602201919050565b7402434b3b410313637b7b210383932b9b9bab9329d1605d1b815260008351613bbb816015850160208801612f53565b602f60f81b6015918401918201528351613bdc816016840160208801612f53565b64206d6d486760d81b60169290910191820152601b01949350505050565b7f4c6f77206f787967656e2073617475726174696f6e3a20000000000000000000815260008251613c32816017850160208701612f53565b602560f81b6017939091019283015250601801919050565b634e487b7160e01b600052601260045260246000fd5b600082613c6f57613c6f613c4a565b500490565b600082613c8357613c83613c4a565b500690565b75022b632bb30ba32b2103a32b6b832b930ba3ab9329d160551b815260008351613cb9816016850160208801612f53565b601760f91b6016918401918201528351613cda816017840160208801612f53565b604360f81b60179290910191820152601801949350505050565b8082028115828204841417613a3357613a336139f1565b60ff8181168382160190811115613a3357613a336139f156fea2646970667358221220402a0bd0effeac5d6ca0ef07739f36c4636c764d7afffc790541c6462051740364736f6c63430008130033",
  "linkReferences": {},
  "deployedLinkReferences": {}
}